:1002E60020202A000000000000000000000000009E
:1002F60000000000000000000000000000000000F8
:1003060000000020200A000000000000000000009D
:1003160000000000000000000000000000000000D7
:06032600000000000000D1
:1003D10053877F759850538EBF538EFE53890F43B9
:1003E1008920758BFD758DFDC2ABD28ED2AFD2AC9B
:0103F10022E9
:060374008B4A8A4B894C04
:10037A00E4FFFEAB4DAA4EA94F8F828E83120297DD
:10038A00AB4AAA4BA94C8F828E831202C40FBF00BC
:08039A00010EEF64204E70DB40
:0103A2002238
:03002300020236A0
:10023600C0E0C083C082C0D075D000C000C001C07D
:1002460002C003C006C007309832C298742A250936
:10025600F8A6990509E50970020508C39420E50882
:1002660094004018750800750900754D00754E001C
:10027600754F2A7B007A00790A120374D007D006DC
:10028600D003D002D001D000D0D0D082D083D0E02D
:010296003235
:1003F2001203D112045C75530075540075550AE45A
:0E040200F556F557FB7A00790A12002680E8BD
:08044F00FEFDFBF7EFDFBF7FAC
:03045C00C2A32216
:1003A3007FFF1203BE7FFF1203BE7FFF1203BE7FD8
:0B03B300FF1203BE7FFF1203BE7FFF9E
:1003BE00E4FEEF3392A2EF25E0FFD2A0C2A00EBE64
:0203CE0008F035
:0103D000220A
:06032D008B6F8A708971DC
:10033300E4FDAB6FAA70A9718D82758300120297D9
:10034300F4FF1203BEAB72AA73A9748D8275830086
:10035300120297F4FF1203BEED90044F93FF1203B2
:10036300BED2A1C2A11203B2D2A1C2A10DBD08C2C5
:010373002267
:09041000758300120297FDAB0494
:10041900EFF4FF1203BEEDF4FF1203BEEB90044F9D
:0504290093FF0203BE79
:07042E00758300120297FF25
:0F043500EFF4FF1203B9ED90044F93FF0203BEE3
:09000300758300120297FFAD6144
:10000C00AC077FFF1203BEECF4FF1203BEED9004AD
:06001C004F93FF0203BE3A
:0B0444001203A31203A3D2A1C2A12245
:05045700D2A1C2A122A8
:060026008B508A51895243
:10002C00E4FCE557C43354E0FFEC25E0FE24112F2B
:10003C00F558EE24102FF559EC25E0FE042FF55A57
:10004C00EE2FF55BAB50AA51A952855882758300EF
:10005C00120297FFAB53AA54A9558558821204106B
:10006C00AB50AA51A952855982758300120297FF91
:10007C00AB53AA54A955855982120410AB50AA51FE
:10008C00A952855A82758300120297FFAB53AA546A
:10009C00A955855A82120410AB50AA51A952855BFE
:1000AC0082758300120297FFAB53AA54A955855B46
:1000BC00821204101204570CEC6408600302002E28
:0100CC002211
:0A0159008B668A6789688C698D6ADD
:10016300E4FCE56AC43354E0FFEC25E0FE24112FE0
:10017300F56BEE24102FF56CEC25E0FE042FF56DE6
:10018300EE2FF56EAB66AA67A968856B827583004F
:10019300120297FFAD04120435AB66AA67A96885FE
:1001A3006C8212042EAB66AA67A968856D8212045D
:1001B3002EAB66AA67A968856E8212042E120457B5
:0401C3000CBC089ECA
:0101C7002215
:0A01C8008B5C8A5D895E8C5F8D60A0
:1001D200E4F561E560C43354E0FFE56125E0FE2407
:1001E200112FF562EE24102FF563E56125E0FE0480
:1001F2002FF564EE2FF565AB5CAA5DA95E85628280
:10020200120003AB5CAA5DA95E856382120003AB98
:100212005CAA5DA95E856482120003AB5CAA5DA93B
:100222005E8565821200031204570561E561C3947D
:030232000840A0E1
:0102350022A6
:030000000200CD2E
:0C00CD00787FE4F6D8FD75817402011400
:10029700BB010CE58229F582E5833AF583E022501C
:1002A70006E92582F8E622BBFE06E92582F8E22266
:0D02B700E58229F582E5833AF583E4932280
:1002C400F8BB010DE58229F582E5833AF583E8F070
:1002D400225006E92582C8F622BBFE05E92582C81C
:0202E400F22204
:1000D9000203F2E493A3F8E493A34003F68001F248
:1000E90008DFF48029E493A3F85407240CC8C33328
:1000F900C4540F4420C8834004F456800146F6DFF7
:10010900E4800B01020408102040809002E6E47E9E
:10011900019360BCA3FF543F30E509541FFEE493EB
:10012900A360010ECF54C025E060A840B8E493A3B2
:10013900FAE493A3F8E493A3C8C582C8CAC583CADD
:10014900F0A3C8C582C8CAC583CADFE9DEE780BE95
:01032C0000D0
:00000001FF
